{
  "_format": "hh-sol-artifact-1",
  "contractName": "Greeting",
  "sourceName": "contracts/Greeting.sol",
  "abi": [
    {
      "inputs": [
        {
          "internalType": "string",
          "name": "name",
          "type": "string"
        }
      ],
      "stateMutability": "nonpayable",
      "type": "constructor"
    },
    {
      "anonymous": false,
      "inputs": [
        {
          "indexed": true,
          "internalType": "address",
          "name": "from",
          "type": "address"
        },
        {
          "indexed": false,
          "internalType": "string",
          "name": "message",
          "type": "string"
        }
      ],
      "name": "GreetingMessage",
      "type": "event"
    },
    {
      "anonymous": false,
      "inputs": [
        {
          "indexed": true,
          "internalType": "address",
          "name": "previousOwner",
          "type": "address"
        },
        {
          "indexed": true,
          "internalType": "address",
          "name": "newOwner",
          "type": "address"
        }
      ],
      "name": "OwnershipTransferred",
      "type": "event"
    },
    {
      "inputs": [],
      "name": "goodMorning",
      "outputs": [],
      "stateMutability": "nonpayable",
      "type": "function"
    },
    {
      "inputs": [],
      "name": "goodbye",
      "outputs": [],
      "stateMutability": "nonpayable",
      "type": "function"
    },
    {
      "inputs": [],
      "name": "hello",
      "outputs": [],
      "stateMutability": "nonpayable",
      "type": "function"
    },
    {
      "inputs": [],
      "name": "myName",
      "outputs": [
        {
          "internalType": "string",
          "name": "",
          "type": "string"
        }
      ],
      "stateMutability": "view",
      "type": "function"
    },
    {
      "inputs": [],
      "name": "owner",
      "outputs": [
        {
          "internalType": "address",
          "name": "",
          "type": "address"
        }
      ],
      "stateMutability": "view",
      "type": "function"
    },
    {
      "inputs": [],
      "name": "renounceOwnership",
      "outputs": [],
      "stateMutability": "nonpayable",
      "type": "function"
    },
    {
      "inputs": [],
      "name": "sayMyName",
      "outputs": [
        {
          "internalType": "string",
          "name": "",
          "type": "string"
        }
      ],
      "stateMutability": "view",
      "type": "function"
    },
    {
      "inputs": [
        {
          "internalType": "string",
          "name": "name",
          "type": "string"
        }
      ],
      "name": "setMyName",
      "outputs": [],
      "stateMutability": "nonpayable",
      "type": "function"
    },
    {
      "inputs": [
        {
          "internalType": "address",
          "name": "newOwner",
          "type": "address"
        }
      ],
      "name": "transferOwnership",
      "outputs": [],
      "stateMutability": "nonpayable",
      "type": "function"
    }
  ],
  "bytecode": "0x60806040523480156200001157600080fd5b5060405162001525380380620015258339818101604052810190620000379190620002cf565b620000576200004b6200007060201b60201c565b6200007860201b60201c565b80600190816200006891906200056b565b505062000652565b600033905090565b60008060009054906101000a900473ffffffffffffffffffffffffffffffffffffffff169050816000806101000a81548173ffffffffffffffffffffffffffffffffffffffff021916908373ffffffffffffffffffffffffffffffffffffffff1602179055508173ffffffffffffffffffffffffffffffffffffffff168173ffffffffffffffffffffffffffffffffffffffff167f8be0079c531659141344cd1fd0a4f28419497f9722a3daafe3b4186f6b6457e060405160405180910390a35050565b6000604051905090565b600080fd5b600080fd5b600080fd5b600080fd5b6000601f19601f8301169050919050565b7f4e487b7100000000000000000000000000000000000000000000000000000000600052604160045260246000fd5b620001a5826200015a565b810181811067ffffffffffffffff82111715620001c757620001c66200016b565b5b80604052505050565b6000620001dc6200013c565b9050620001ea82826200019a565b919050565b600067ffffffffffffffff8211156200020d576200020c6200016b565b5b62000218826200015a565b9050602081019050919050565b60005b838110156200024557808201518184015260208101905062000228565b60008484015250505050565b6000620002686200026284620001ef565b620001d0565b90508281526020810184848401111562000287576200028662000155565b5b6200029484828562000225565b509392505050565b600082601f830112620002b457620002b362000150565b5b8151620002c684826020860162000251565b91505092915050565b600060208284031215620002e857620002e762000146565b5b600082015167ffffffffffffffff8111156200030957620003086200014b565b5b62000317848285016200029c565b91505092915050565b600081519050919050565b7f4e487b7100000000000000000000000000000000000000000000000000000000600052602260045260246000fd5b600060028204905060018216806200037357607f821691505b6020821081036200038957620003886200032b565b5b50919050565b60008190508160005260206000209050919050565b60006020601f8301049050919050565b600082821b905092915050565b600060088302620003f37fffffffffffffffffffffffffffffffffffffffffffffffffffffffffffffffff82620003b4565b620003ff8683620003b4565b95508019841693508086168417925050509392505050565b6000819050919050565b6000819050919050565b60006200044c62000446620004408462000417565b62000421565b62000417565b9050919050565b6000819050919050565b62000468836200042b565b62000480620004778262000453565b848454620003c1565b825550505050565b600090565b6200049762000488565b620004a48184846200045d565b505050565b5b81811015620004cc57620004c06000826200048d565b600181019050620004aa565b5050565b601f8211156200051b57620004e5816200038f565b620004f084620003a4565b8101602085101562000500578190505b620005186200050f85620003a4565b830182620004a9565b50505b505050565b600082821c905092915050565b6000620005406000198460080262000520565b1980831691505092915050565b60006200055b83836200052d565b9150826002028217905092915050565b620005768262000320565b67ffffffffffffffff8111156200059257620005916200016b565b5b6200059e82546200035a565b620005ab828285620004d0565b600060209050601f831160018114620005e35760008415620005ce578287015190505b620005da85826200054d565b8655506200064a565b601f198416620005f3866200038f565b60005b828110156200061d57848901518255600182019150602085019450602081019050620005f6565b868310156200063d578489015162000639601f8916826200052d565b8355505b6001600288020188555050505b505050505050565b610ec380620006626000396000f3fe608060405234801561001057600080fd5b50600436106100935760003560e01c80638da5cb5b116100665780638da5cb5b146100c0578063c7857d27146100de578063e2523a69146100fa578063f2fde38b14610118578063fae2dd4b1461013457610093565b806319ff1d21146100985780633e1b6366146100a2578063715018a6146100ac57806375fc8e3c146100b6575b600080fd5b6100a0610152565b005b6100aa6101a0565b005b6100b46101ee565b005b6100be610202565b005b6100c8610250565b6040516100d59190610558565b60405180910390f35b6100f860048036038101906100f391906106cd565b610279565b005b610102610294565b60405161010f9190610795565b60405180910390f35b610132600480360381019061012d91906107e3565b6102bc565b005b61013c61033f565b6040516101499190610795565b60405180910390f35b3373ffffffffffffffffffffffffffffffffffffffff167f10656449d210ab854b4f8d1440ba6f0a1ef99460ebf9f4be59a9c803ded8cff36040516101969061085c565b60405180910390a2565b3373ffffffffffffffffffffffffffffffffffffffff167f10656449d210ab854b4f8d1440ba6f0a1ef99460ebf9f4be59a9c803ded8cff36040516101e4906108c8565b60405180910390a2565b6101f66103cd565b610200600061044b565b565b3373ffffffffffffffffffffffffffffffffffffffff167f10656449d210ab854b4f8d1440ba6f0a1ef99460ebf9f4be59a9c803ded8cff360405161024690610934565b60405180910390a2565b60008060009054906101000a900473ffffffffffffffffffffffffffffffffffffffff16905090565b6102816103cd565b80600190816102909190610b6a565b5050565b606060016040516020016102a89190610d62565b604051602081830303815290604052905090565b6102c46103cd565b600073ffffffffffffffffffffffffffffffffffffffff168173ffffffffffffffffffffffffffffffffffffffff1603610333576040517f08c379a000000000000000000000000000000000000000000000000000000000815260040161032a90610e01565b60405180910390fd5b61033c8161044b565b50565b6001805461034c90610983565b80601f016020809104026020016040519081016040528092919081815260200182805461037890610983565b80156103c55780601f1061039a576101008083540402835291602001916103c5565b820191906000526020600020905b8154815290600101906020018083116103a857829003601f168201915b505050505081565b6103d561050f565b73ffffffffffffffffffffffffffffffffffffffff166103f3610250565b73ffffffffffffffffffffffffffffffffffffffff1614610449576040517f08c379a000000000000000000000000000000000000000000000000000000000815260040161044090610e6d565b60405180910390fd5b565b60008060009054906101000a900473ffffffffffffffffffffffffffffffffffffffff169050816000806101000a81548173ffffffffffffffffffffffffffffffffffffffff021916908373ffffffffffffffffffffffffffffffffffffffff1602179055508173ffffffffffffffffffffffffffffffffffffffff168173ffffffffffffffffffffffffffffffffffffffff167f8be0079c531659141344cd1fd0a4f28419497f9722a3daafe3b4186f6b6457e060405160405180910390a35050565b600033905090565b600073ffffffffffffffffffffffffffffffffffffffff82169050919050565b600061054282610517565b9050919050565b61055281610537565b82525050565b600060208201905061056d6000830184610549565b92915050565b6000604051905090565b600080fd5b600080fd5b600080fd5b600080fd5b6000601f19601f8301169050919050565b7f4e487b7100000000000000000000000000000000000000000000000000000000600052604160045260246000fd5b6105da82610591565b810181811067ffffffffffffffff821117156105f9576105f86105a2565b5b80604052505050565b600061060c610573565b905061061882826105d1565b919050565b600067ffffffffffffffff821115610638576106376105a2565b5b61064182610591565b9050602081019050919050565b82818337600083830152505050565b600061067061066b8461061d565b610602565b90508281526020810184848401111561068c5761068b61058c565b5b61069784828561064e565b509392505050565b600082601f8301126106b4576106b3610587565b5b81356106c484826020860161065d565b91505092915050565b6000602082840312156106e3576106e261057d565b5b600082013567ffffffffffffffff81111561070157610700610582565b5b61070d8482850161069f565b91505092915050565b600081519050919050565b600082825260208201905092915050565b60005b83811015610750578082015181840152602081019050610735565b60008484015250505050565b600061076782610716565b6107718185610721565b9350610781818560208601610732565b61078a81610591565b840191505092915050565b600060208201905081810360008301526107af818461075c565b905092915050565b6107c081610537565b81146107cb57600080fd5b50565b6000813590506107dd816107b7565b92915050565b6000602082840312156107f9576107f861057d565b5b6000610807848285016107ce565b91505092915050565b7f48656c6c6f000000000000000000000000000000000000000000000000000000600082015250565b6000610846600583610721565b915061085182610810565b602082019050919050565b6000602082019050818103600083015261087581610839565b9050919050565b7f476f6f64206d6f726e696e670000000000000000000000000000000000000000600082015250565b60006108b2600c83610721565b91506108bd8261087c565b602082019050919050565b600060208201905081810360008301526108e1816108a5565b9050919050565b7f476f6f6462796500000000000000000000000000000000000000000000000000600082015250565b600061091e600783610721565b9150610929826108e8565b602082019050919050565b6000602082019050818103600083015261094d81610911565b9050919050565b7f4e487b7100000000000000000000000000000000000000000000000000000000600052602260045260246000fd5b6000600282049050600182168061099b57607f821691505b6020821081036109ae576109ad610954565b5b50919050565b60008190508160005260206000209050919050565b60006020601f8301049050919050565b600082821b905092915050565b600060088302610a167fffffffffffffffffffffffffffffffffffffffffffffffffffffffffffffffff826109d9565b610a2086836109d9565b95508019841693508086168417925050509392505050565b6000819050919050565b6000819050919050565b6000610a67610a62610a5d84610a38565b610a42565b610a38565b9050919050565b6000819050919050565b610a8183610a4c565b610a95610a8d82610a6e565b8484546109e6565b825550505050565b600090565b610aaa610a9d565b610ab5818484610a78565b505050565b5b81811015610ad957610ace600082610aa2565b600181019050610abb565b5050565b601f821115610b1e57610aef816109b4565b610af8846109c9565b81016020851015610b07578190505b610b1b610b13856109c9565b830182610aba565b50505b505050565b600082821c905092915050565b6000610b4160001984600802610b23565b1980831691505092915050565b6000610b5a8383610b30565b9150826002028217905092915050565b610b7382610716565b67ffffffffffffffff811115610b8c57610b8b6105a2565b5b610b968254610983565b610ba1828285610add565b600060209050601f831160018114610bd45760008415610bc2578287015190505b610bcc8582610b4e565b865550610c34565b601f198416610be2866109b4565b60005b82811015610c0a57848901518255600182019150602085019450602081019050610be5565b86831015610c275784890151610c23601f891682610b30565b8355505b6001600288020188555050505b505050505050565b600081905092915050565b7f4d79206e616d6520697320000000000000000000000000000000000000000000600082015250565b6000610c7d600b83610c3c565b9150610c8882610c47565b600b82019050919050565b60008154610ca081610983565b610caa8186610c3c565b94506001821660008114610cc55760018114610cda57610d0d565b60ff1983168652811515820286019350610d0d565b610ce3856109b4565b60005b83811015610d0557815481890152600182019150602081019050610ce6565b838801955050505b50505092915050565b7f2e00000000000000000000000000000000000000000000000000000000000000600082015250565b6000610d4c600183610c3c565b9150610d5782610d16565b600182019050919050565b6000610d6d82610c70565b9150610d798284610c93565b9150610d8482610d3f565b915081905092915050565b7f4f776e61626c653a206e6577206f776e657220697320746865207a65726f206160008201527f6464726573730000000000000000000000000000000000000000000000000000602082015250565b6000610deb602683610721565b9150610df682610d8f565b604082019050919050565b60006020820190508181036000830152610e1a81610dde565b9050919050565b7f4f776e61626c653a2063616c6c6572206973206e6f7420746865206f776e6572600082015250565b6000610e57602083610721565b9150610e6282610e21565b602082019050919050565b60006020820190508181036000830152610e8681610e4a565b905091905056fea264697066735822122077a4cfdffbf9733cc2147046294c6518564534d72157c5b43bb898b894b01da264736f6c63430008130033",
  "linkReferences": {},
  "deployedLinkReferences": {}
}